{
  "contractName": "ASK",
  "abi": [
    {
      "inputs": [],
      "payable": true,
      "stateMutability": "payable",
      "type": "constructor",
      "signature": "constructor"
    },
    {
      "payable": true,
      "stateMutability": "payable",
      "type": "fallback"
    },
    {
      "constant": true,
      "inputs": [
        {
          "name": "userAddress",
          "type": "address"
        }
      ],
      "name": "balanceOf",
      "outputs": [
        {
          "name": "",
          "type": "uint256"
        }
      ],
      "payable": false,
      "stateMutability": "view",
      "type": "function",
      "signature": "0x70a08231"
    },
    {
      "constant": false,
      "inputs": [],
      "name": "register",
      "outputs": [],
      "payable": true,
      "stateMutability": "payable",
      "type": "function",
      "signature": "0x1aa3a008"
    },
    {
      "constant": false,
      "inputs": [
        {
          "name": "userAddress",
          "type": "address"
        }
      ],
      "name": "unregister",
      "outputs": [],
      "payable": true,
      "stateMutability": "payable",
      "type": "function",
      "signature": "0x2ec2c246"
    },
    {
      "constant": false,
      "inputs": [
        {
          "name": "toAirline",
          "type": "address"
        }
      ],
      "name": "settlePayment",
      "outputs": [],
      "payable": true,
      "stateMutability": "payable",
      "type": "function",
      "signature": "0x2109dc88"
    },
    {
      "constant": false,
      "inputs": [
        {
          "name": "toAirline",
          "type": "address"
        },
        {
          "name": "orderHash",
          "type": "uint256"
        }
      ],
      "name": "request",
      "outputs": [
        {
          "name": "",
          "type": "bool"
        }
      ],
      "payable": false,
      "stateMutability": "nonpayable",
      "type": "function",
      "signature": "0xc8c01a55"
    },
    {
      "constant": false,
      "inputs": [
        {
          "name": "fromAirline",
          "type": "address"
        },
        {
          "name": "orderHash",
          "type": "uint256"
        }
      ],
      "name": "response",
      "outputs": [
        {
          "name": "",
          "type": "bool"
        }
      ],
      "payable": false,
      "stateMutability": "nonpayable",
      "type": "function",
      "signature": "0x3ef9e3e4"
    }
  ],
  "bytecode": "0x608060405230600160006101000a81548173ffffffffffffffffffffffffffffffffffffffff021916908373ffffffffffffffffffffffffffffffffffffffff1602179055506802b5e3af16b1880000600381905550336000806101000a81548173ffffffffffffffffffffffffffffffffffffffff021916908373ffffffffffffffffffffffffffffffffffffffff1602179055506001600260008060009054906101000a900473ffffffffffffffffffffffffffffffffffffffff1673ffffffffffffffffffffffffffffffffffffffff1673ffffffffffffffffffffffffffffffffffffffff16815260200190815260200160002060000160016101000a81548160ff0219169083151502179055506001600260008060009054906101000a900473ffffffffffffffffffffffffffffffffffffffff1673ffffffffffffffffffffffffffffffffffffffff1673ffffffffffffffffffffffffffffffffffffffff16815260200190815260200160002060000160006101000a81548160ff021916908315150217905550610db38061019c6000396000f3fe608060405260043610610078576000357c0100000000000000000000000000000000000000000000000000000000900463ffffffff1680631aa3a0081461007a5780632109dc88146100845780632ec2c246146100c85780633ef9e3e41461010c57806370a082311461017f578063c8c01a55146101e4575b005b610082610257565b005b6100c66004803603602081101561009a57600080fd5b81019080803573ffffffffffffffffffffffffffffffffffffffff169060200190929190505050610558565b005b61010a600480360360208110156100de57600080fd5b81019080803573ffffffffffffffffffffffffffffffffffffffff16906020019092919050505061066d565b005b34801561011857600080fd5b506101656004803603604081101561012f57600080fd5b81019080803573ffffffffffffffffffffffffffffffffffffffff169060200190929190803590602001909291905050506109a0565b604051808215151515815260200191505060405180910390f35b34801561018b57600080fd5b506101ce600480360360208110156101a257600080fd5b81019080803573ffffffffffffffffffffffffffffffffffffffff169060200190929190505050610a76565b6040518082815260200191505060405180910390f35b3480156101f057600080fd5b5061023d6004803603604081101561020757600080fd5b81019080803573ffffffffffffffffffffffffffffffffffffffff16906020019092919080359060200190929190505050610cb1565b604051808215151515815260200191505060405180910390f35b3360001515600260008373ffffffffffffffffffffffffffffffffffffffff1673ffffffffffffffffffffffffffffffffffffffff16815260200190815260200160002060000160009054906101000a900460ff161515141515610323576040517f08c379a000000000000000000000000000000000000000000000000000000000815260040180806020018281038252601c8152602001807f416c726561647920612072656769737465726564206169726c696e650000000081525060200191505060405180910390fd5b60035434101515156103e9576040517f08c379a00000000000000000000000000000000000000000000000000000000081526004018080602001828103825260418152602001807f596f7572206465706f736974206d75737420626520677265617465722074686181526020017f6e206f7220657175616c20746f20746865206d696e696d756d206465706f736981526020017f740000000000000000000000000000000000000000000000000000000000000081525060600191505060405180910390fd5b60003390506000600260008373ffffffffffffffffffffffffffffffffffffffff1673ffffffffffffffffffffffffffffffffffffffff16815260200190815260200160002060000160016101000a81548160ff0219169083151502179055506001600260008373ffffffffffffffffffffffffffffffffffffffff1673ffffffffffffffffffffffffffffffffffffffff16815260200190815260200160002060000160006101000a81548160ff02191690831515021790555034600260008373ffffffffffffffffffffffffffffffffffffffff1673ffffffffffffffffffffffffffffffffffffffff16815260200190815260200160002060010181905550600160009054906101000a900473ffffffffffffffffffffffffffffffffffffffff1673ffffffffffffffffffffffffffffffffffffffff166108fc349081150290604051600060405180830381858888f19350505050158015610553573d6000803e3d6000fd5b505050565b60001515600260003373ffffffffffffffffffffffffffffffffffffffff1673ffffffffffffffffffffffffffffffffffffffff16815260200190815260200160002060000160019054906101000a900460ff161515141515610623576040517f08c379a000000000000000000000000000000000000000000000000000000000815260040180806020018281038252601d8152602001807f4f6e6c7920616e206169726c696e652063616e2063616c6c207468697300000081525060200191505060405180910390fd5b8073ffffffffffffffffffffffffffffffffffffffff166108fc349081150290604051600060405180830381858888f19350505050158015610669573d6000803e3d6000fd5b5050565b6000809054906101000a900473ffffffffffffffffffffffffffffffffffffffff1673ffffffffffffffffffffffffffffffffffffffff163373ffffffffffffffffffffffffffffffffffffffff16141515610731576040517f08c379a000000000000000000000000000000000000000000000000000000000815260040180806020018281038252601e8152602001807f4f6e6c79206368616972706572736f6e2063616e2063616c6c2074686973000081525060200191505060405180910390fd5b8060011515600260008373ffffffffffffffffffffffffffffffffffffffff1673ffffffffffffffffffffffffffffffffffffffff16815260200190815260200160002060000160009054906101000a900460ff1615151415156107fd576040517f08c379a00000000000000000000000000000000000000000000000000000000081526004018080602001828103825260188152602001807f4e6f7420612072656769737465726564206169726c696e65000000000000000081525060200191505060405180910390fd5b3373ffffffffffffffffffffffffffffffffffffffff168273ffffffffffffffffffffffffffffffffffffffff16141515156108a1576040517f08c379a000000000000000000000000000000000000000000000000000000000815260040180806020018281038252601a8152602001807f43616e6e6f7420756e726567697374657220796f757273656c6600000000000081525060200191505060405180910390fd5b8173ffffffffffffffffffffffffffffffffffffffff166108fc600260008573ffffffffffffffffffffffffffffffffffffffff1673ffffffffffffffffffffffffffffffffffffffff168152602001908152602001600020600101549081150290604051600060405180830381858888f19350505050158015610929573d6000803e3d6000fd5b50600260008373ffffffffffffffffffffffffffffffffffffffff1673ffffffffffffffffffffffffffffffffffffffff168152602001908152602001600020600080820160006101000a81549060ff02191690556000820160016101000a81549060ff0219169055600182016000905550505050565b6000801515600260003373ffffffffffffffffffffffffffffffffffffffff1673ffffffffffffffffffffffffffffffffffffffff16815260200190815260200160002060000160019054906101000a900460ff161515141515610a6c576040517f08c379a000000000000000000000000000000000000000000000000000000000815260040180806020018281038252601d8152602001807f4f6e6c7920616e206169726c696e652063616e2063616c6c207468697300000081525060200191505060405180910390fd5b6001905092915050565b60008160011515600260008373ffffffffffffffffffffffffffffffffffffffff1673ffffffffffffffffffffffffffffffffffffffff16815260200190815260200160002060000160009054906101000a900460ff161515141515610b44576040517f08c379a00000000000000000000000000000000000000000000000000000000081526004018080602001828103825260188152602001807f4e6f7420612072656769737465726564206169726c696e65000000000000000081525060200191505060405180910390fd5b826000809054906101000a900473ffffffffffffffffffffffffffffffffffffffff1673ffffffffffffffffffffffffffffffffffffffff163373ffffffffffffffffffffffffffffffffffffffff161480610bcb57508073ffffffffffffffffffffffffffffffffffffffff163373ffffffffffffffffffffffffffffffffffffffff16145b1515610c65576040517f08c379a00000000000000000000000000000000000000000000000000000000081526004018080602001828103825260318152602001807f4f6e6c79206368616972706572736f6e206f722074686520746172676574207581526020017f7365722063616e2063616c6c207468697300000000000000000000000000000081525060400191505060405180910390fd5b600260008573ffffffffffffffffffffffffffffffffffffffff1673ffffffffffffffffffffffffffffffffffffffff1681526020019081526020016000206001015492505050919050565b6000801515600260003373ffffffffffffffffffffffffffffffffffffffff1673ffffffffffffffffffffffffffffffffffffffff16815260200190815260200160002060000160019054906101000a900460ff161515141515610d7d576040517f08c379a000000000000000000000000000000000000000000000000000000000815260040180806020018281038252601d8152602001807f4f6e6c7920616e206169726c696e652063616e2063616c6c207468697300000081525060200191505060405180910390fd5b600190509291505056fea165627a7a7230582033f877bf637ca7fe08f3ba7a8d9ed690d69c494f8d34ae518ee246a5652ba85c0029",
  "source": "pragma solidity >=0.5.0;\r\n\r\ncontract ASK {\r\n    // define the user structure\r\n    struct Airline {\r\n        // to make sure that the user is not registered during signup\r\n        bool isRegistered;\r\n        // chairperson, buyer, seller or buyer_and_seller\r\n        bool isAdmin;\r\n        // account balance\r\n        uint balance;\r\n    }\r\n\r\n    address payable private chairperson;\r\n    address payable contractAccount;\r\n    \r\n    // define a list of all users \r\n    mapping(address => Airline) private airlines;\r\n    uint min_deposit;\r\n     \r\n    // modifiers\r\n    modifier onlyChairperson() {\r\n        require(msg.sender == chairperson, \"Only chairperson can call this\");\r\n        _;\r\n    }\r\n\r\n    // airline\r\n    modifier onlyAirline() {\r\n        require(airlines[msg.sender].isAdmin == false, \"Only an airline can call this\" );\r\n        _;\r\n    }\r\n    \r\n    modifier onlyChairpersonOrSelf(address userAddress) {\r\n        require(msg.sender == chairperson || msg.sender == userAddress, \"Only chairperson or the target user can call this\");\r\n        _;\r\n    }\r\n    \r\n    modifier onlyNewAirline(address newAirline) {\r\n        require(airlines[newAirline].isRegistered == false, \"Already a registered airline\");\r\n        _;\r\n    }\r\n    \r\n    modifier onlyRegistered(address newAirline) {\r\n        require(airlines[newAirline].isRegistered == true, \"Not a registered airline\");\r\n        _;\r\n    }\r\n    \r\n    \r\n    constructor() public payable {\r\n        contractAccount = address(this);\r\n        min_deposit = 50 ether;\r\n        chairperson = msg.sender;\r\n        airlines[chairperson].isAdmin = true;\r\n        airlines[chairperson].isRegistered = true;\r\n    }\r\n    \r\n    /* Chairperson functions go here */\r\n    \r\n    // a view function that returns the balance of a particular user\r\n    function balanceOf(address userAddress) public view onlyRegistered(userAddress) onlyChairpersonOrSelf(userAddress) returns(uint) {\r\n        return airlines[userAddress].balance;\r\n    }\r\n   \r\n    // called by the chairperson when a new user needs to be registered. A new user structure is added to the list of users and a deposit more like a \"signup bonus\" is added to user's account.\r\n    function register() public payable onlyNewAirline(msg.sender) {\r\n        require(msg.value >= min_deposit, \"Your deposit must be greater than or equal to the minimum deposit\");\r\n        address payable newAirline = msg.sender;\r\n        airlines[newAirline].isAdmin = false;\r\n        airlines[newAirline].isRegistered = true;\r\n        airlines[newAirline].balance = msg.value;\r\n        \r\n        contractAccount.transfer(msg.value);\r\n    }\r\n    \r\n    // called when a user is to be unregistered, first the user's balance is transferred to the user and user's registration details are deleted \r\n    function unregister(address payable userAddress) public payable onlyChairperson onlyRegistered(userAddress){\r\n        // if chairperson tries to unregister himself\r\n        require(userAddress != msg.sender, \"Cannot unregister yourself\");\r\n        \r\n        userAddress.transfer(airlines[userAddress].balance);\r\n        delete airlines[userAddress];\r\n     \r\n    }\r\n    \r\n    function settlePayment(address payable toAirline) public payable onlyAirline {\r\n        toAirline.transfer(msg.value);\r\n    }\r\n    \r\n    function request(address toAirline, uint256 orderHash) public onlyAirline returns(bool) {\r\n        return true;\r\n    }\r\n    \r\n    function response(address fromAirline, uint256 orderHash) public onlyAirline returns(bool) {\r\n        return true;\r\n    }\r\n    \r\n    function() payable external {\r\n        \r\n    }\r\n\r\n}",
  "sourcePath": "C:/Users/socket_var/Desktop/ASK/truffle-build/contracts/ASK.sol",
  "compiler": {
    "name": "solc",
    "version": "0.5.0+commit.1d4f565a.Emscripten.clang"
  },
  "schemaVersion": "3.0.1",
  "updatedAt": "2019-04-25T16:50:09.870Z",
  "devdoc": {
    "methods": {}
  },
  "userdoc": {
    "methods": {}
  }
}